{
  "contractName": "Token",
  "abi": [
    {
      "inputs": [],
      "stateMutability": "payable",
      "type": "constructor"
    },
    {
      "anonymous": false,
      "inputs": [
        {
          "indexed": true,
          "internalType": "address",
          "name": "owner",
          "type": "address"
        },
        {
          "indexed": true,
          "internalType": "address",
          "name": "spender",
          "type": "address"
        },
        {
          "indexed": false,
          "internalType": "uint256",
          "name": "value",
          "type": "uint256"
        }
      ],
      "name": "Approval",
      "type": "event"
    },
    {
      "anonymous": false,
      "inputs": [
        {
          "indexed": false,
          "internalType": "address",
          "name": "_old",
          "type": "address"
        },
        {
          "indexed": false,
          "internalType": "address",
          "name": "_new",
          "type": "address"
        }
      ],
      "name": "MinterChange",
      "type": "event"
    },
    {
      "anonymous": false,
      "inputs": [
        {
          "indexed": true,
          "internalType": "address",
          "name": "from",
          "type": "address"
        },
        {
          "indexed": true,
          "internalType": "address",
          "name": "to",
          "type": "address"
        },
        {
          "indexed": false,
          "internalType": "uint256",
          "name": "value",
          "type": "uint256"
        }
      ],
      "name": "Transfer",
      "type": "event"
    },
    {
      "inputs": [
        {
          "internalType": "address",
          "name": "owner",
          "type": "address"
        },
        {
          "internalType": "address",
          "name": "spender",
          "type": "address"
        }
      ],
      "name": "allowance",
      "outputs": [
        {
          "internalType": "uint256",
          "name": "",
          "type": "uint256"
        }
      ],
      "stateMutability": "view",
      "type": "function"
    },
    {
      "inputs": [
        {
          "internalType": "address",
          "name": "spender",
          "type": "address"
        },
        {
          "internalType": "uint256",
          "name": "amount",
          "type": "uint256"
        }
      ],
      "name": "approve",
      "outputs": [
        {
          "internalType": "bool",
          "name": "",
          "type": "bool"
        }
      ],
      "stateMutability": "nonpayable",
      "type": "function"
    },
    {
      "inputs": [
        {
          "internalType": "address",
          "name": "account",
          "type": "address"
        }
      ],
      "name": "balanceOf",
      "outputs": [
        {
          "internalType": "uint256",
          "name": "",
          "type": "uint256"
        }
      ],
      "stateMutability": "view",
      "type": "function"
    },
    {
      "inputs": [],
      "name": "decimals",
      "outputs": [
        {
          "internalType": "uint8",
          "name": "",
          "type": "uint8"
        }
      ],
      "stateMutability": "view",
      "type": "function"
    },
    {
      "inputs": [
        {
          "internalType": "address",
          "name": "spender",
          "type": "address"
        },
        {
          "internalType": "uint256",
          "name": "subtractedValue",
          "type": "uint256"
        }
      ],
      "name": "decreaseAllowance",
      "outputs": [
        {
          "internalType": "bool",
          "name": "",
          "type": "bool"
        }
      ],
      "stateMutability": "nonpayable",
      "type": "function"
    },
    {
      "inputs": [
        {
          "internalType": "address",
          "name": "spender",
          "type": "address"
        },
        {
          "internalType": "uint256",
          "name": "addedValue",
          "type": "uint256"
        }
      ],
      "name": "increaseAllowance",
      "outputs": [
        {
          "internalType": "bool",
          "name": "",
          "type": "bool"
        }
      ],
      "stateMutability": "nonpayable",
      "type": "function"
    },
    {
      "inputs": [],
      "name": "minter",
      "outputs": [
        {
          "internalType": "address",
          "name": "",
          "type": "address"
        }
      ],
      "stateMutability": "view",
      "type": "function"
    },
    {
      "inputs": [],
      "name": "name",
      "outputs": [
        {
          "internalType": "string",
          "name": "",
          "type": "string"
        }
      ],
      "stateMutability": "view",
      "type": "function"
    },
    {
      "inputs": [],
      "name": "symbol",
      "outputs": [
        {
          "internalType": "string",
          "name": "",
          "type": "string"
        }
      ],
      "stateMutability": "view",
      "type": "function"
    },
    {
      "inputs": [],
      "name": "totalSupply",
      "outputs": [
        {
          "internalType": "uint256",
          "name": "",
          "type": "uint256"
        }
      ],
      "stateMutability": "view",
      "type": "function"
    },
    {
      "inputs": [
        {
          "internalType": "address",
          "name": "to",
          "type": "address"
        },
        {
          "internalType": "uint256",
          "name": "amount",
          "type": "uint256"
        }
      ],
      "name": "transfer",
      "outputs": [
        {
          "internalType": "bool",
          "name": "",
          "type": "bool"
        }
      ],
      "stateMutability": "nonpayable",
      "type": "function"
    },
    {
      "inputs": [
        {
          "internalType": "address",
          "name": "from",
          "type": "address"
        },
        {
          "internalType": "address",
          "name": "to",
          "type": "address"
        },
        {
          "internalType": "uint256",
          "name": "amount",
          "type": "uint256"
        }
      ],
      "name": "transferFrom",
      "outputs": [
        {
          "internalType": "bool",
          "name": "",
          "type": "bool"
        }
      ],
      "stateMutability": "nonpayable",
      "type": "function"
    },
    {
      "inputs": [
        {
          "internalType": "address",
          "name": "_game",
          "type": "address"
        }
      ],
      "name": "passMinterRole",
      "outputs": [
        {
          "internalType": "bool",
          "name": "success",
          "type": "bool"
        }
      ],
      "stateMutability": "nonpayable",
      "type": "function"
    },
    {
      "inputs": [
        {
          "internalType": "address",
          "name": "account",
          "type": "address"
        },
        {
          "internalType": "uint256",
          "name": "amount",
          "type": "uint256"
        }
      ],
      "name": "mint",
      "outputs": [],
      "stateMutability": "nonpayable",
      "type": "function"
    }
  ],
  "bytecode": "0x60806040526040518060400160405280600a81526020017f576f72646c65636f696e000000000000000000000000000000000000000000008152506040518060400160405280600381526020017f57444c00000000000000000000000000000000000000000000000000000000008152508160039080519060200190620000889291906200028c565b508060049080519060200190620000a19291906200028c565b505050620000c2336b033b2e3c9fd0803ce80000006200010960201b60201c565b33600560006101000a81548173ffffffffffffffffffffffffffffffffffffffff021916908373ffffffffffffffffffffffffffffffffffffffff160217905550620004e8565b600073ffffffffffffffffffffffffffffffffffffffff168273ffffffffffffffffffffffffffffffffffffffff1614156200017c576040517f08c379a0000000000000000000000000000000000000000000000000000000008152600401620001739062000374565b60405180910390fd5b62000190600083836200028260201b60201c565b8060026000828254620001a49190620003c4565b92505081905550806000808473ffffffffffffffffffffffffffffffffffffffff1673ffffffffffffffffffffffffffffffffffffffff1681526020019081526020016000206000828254620001fb9190620003c4565b925050819055508173ffffffffffffffffffffffffffffffffffffffff16600073ffffffffffffffffffffffffffffffffffffffff167fddf252ad1be2c89b69c2b068fc378daa952ba7f163c4a11628f55a4df523b3ef8360405162000262919062000396565b60405180910390a36200027e600083836200028760201b60201c565b5050565b505050565b505050565b8280546200029a906200042b565b90600052602060002090601f016020900481019282620002be57600085556200030a565b82601f10620002d957805160ff19168380011785556200030a565b828001600101855582156200030a579182015b8281111562000309578251825591602001919060010190620002ec565b5b5090506200031991906200031d565b5090565b5b80821115620003385760008160009055506001016200031e565b5090565b60006200034b601f83620003b3565b91506200035882620004bf565b602082019050919050565b6200036e8162000421565b82525050565b600060208201905081810360008301526200038f816200033c565b9050919050565b6000602082019050620003ad600083018462000363565b92915050565b600082825260208201905092915050565b6000620003d18262000421565b9150620003de8362000421565b9250827fffffffffffffffffffffffffffffffffffffffffffffffffffffffffffffffff0382111562000416576200041562000461565b5b828201905092915050565b6000819050919050565b600060028204905060018216806200044457607f821691505b602082108114156200045b576200045a62000490565b5b50919050565b7f4e487b7100000000000000000000000000000000000000000000000000000000600052601160045260246000fd5b7f4e487b7100000000000000000000000000000000000000000000000000000000600052602260045260246000fd5b7f45524332303a206d696e7420746f20746865207a65726f206164647265737300600082015250565b61190080620004f86000396000f3fe608060405234801561001057600080fd5b50600436106100ea5760003560e01c806340c10f191161008c578063a457c2d711610066578063a457c2d714610261578063a9059cbb14610291578063d7fc5b15146102c1578063dd62ed3e146102f1576100ea565b806340c10f19146101f757806370a082311461021357806395d89b4114610243576100ea565b806318160ddd116100c857806318160ddd1461015b57806323b872dd14610179578063313ce567146101a957806339509351146101c7576100ea565b806306fdde03146100ef578063075461721461010d578063095ea7b31461012b575b600080fd5b6100f7610321565b604051610104919061129f565b60405180910390f35b6101156103b3565b6040516101229190611240565b60405180910390f35b61014560048036038101906101409190611031565b6103d9565b6040516101529190611284565b60405180910390f35b6101636103fc565b6040516101709190611401565b60405180910390f35b610193600480360381019061018e9190610fe2565b610406565b6040516101a09190611284565b60405180910390f35b6101b1610435565b6040516101be919061141c565b60405180910390f35b6101e160048036038101906101dc9190611031565b61043e565b6040516101ee9190611284565b60405180910390f35b610211600480360381019061020c9190611031565b6104e8565b005b61022d60048036038101906102289190610f7d565b610586565b60405161023a9190611401565b60405180910390f35b61024b6105ce565b604051610258919061129f565b60405180910390f35b61027b60048036038101906102769190611031565b610660565b6040516102889190611284565b60405180910390f35b6102ab60048036038101906102a69190611031565b61074a565b6040516102b89190611284565b60405180910390f35b6102db60048036038101906102d69190610f7d565b61076d565b6040516102e89190611284565b60405180910390f35b61030b60048036038101906103069190610fa6565b610882565b6040516103189190611401565b60405180910390f35b60606003805461033090611531565b80601f016020809104026020016040519081016040528092919081815260200182805461035c90611531565b80156103a95780601f1061037e576101008083540402835291602001916103a9565b820191906000526020600020905b81548152906001019060200180831161038c57829003601f168201915b5050505050905090565b600560009054906101000a900473ffffffffffffffffffffffffffffffffffffffff1681565b6000806103e4610909565b90506103f1818585610911565b600191505092915050565b6000600254905090565b600080610411610909565b905061041e858285610adc565b610429858585610b68565b60019150509392505050565b60006012905090565b600080610449610909565b90506104dd818585600160008673ffffffffffffffffffffffffffffffffffffffff1673ffffffffffffffffffffffffffffffffffffffff16815260200190815260200160002060008973ffffffffffffffffffffffffffffffffffffffff1673ffffffffffffffffffffffffffffffffffffffff168152602001908152602001600020546104d89190611453565b610911565b600191505092915050565b600560009054906101000a900473ffffffffffffffffffffffffffffffffffffffff1673ffffffffffffffffffffffffffffffffffffffff163373ffffffffffffffffffffffffffffffffffffffff1614610578576040517f08c379a000000000000000000000000000000000000000000000000000000000815260040161056f90611341565b60405180910390fd5b6105828282610de9565b5050565b60008060008373ffffffffffffffffffffffffffffffffffffffff1673ffffffffffffffffffffffffffffffffffffffff168152602001908152602001600020549050919050565b6060600480546105dd90611531565b80601f016020809104026020016040519081016040528092919081815260200182805461060990611531565b80156106565780601f1061062b57610100808354040283529160200191610656565b820191906000526020600020905b81548152906001019060200180831161063957829003601f168201915b5050505050905090565b60008061066b610909565b90506000600160008373ffffffffffffffffffffffffffffffffffffffff1673ffffffffffffffffffffffffffffffffffffffff16815260200190815260200160002060008673ffffffffffffffffffffffffffffffffffffffff1673ffffffffffffffffffffffffffffffffffffffff16815260200190815260200160002054905083811015610731576040517f08c379a0000000000000000000000000000000000000000000000000000000008152600401610728906113c1565b60405180910390fd5b61073e8286868403610911565b60019250505092915050565b600080610755610909565b9050610762818585610b68565b600191505092915050565b6000600560009054906101000a900473ffffffffffffffffffffffffffffffffffffffff1673ffffffffffffffffffffffffffffffffffffffff163373ffffffffffffffffffffffffffffffffffffffff16146107ff576040517f08c379a00000000000000000000000000000000000000000000000000000000081526004016107f690611361565b60405180910390fd5b81600560006101000a81548173ffffffffffffffffffffffffffffffffffffffff021916908373ffffffffffffffffffffffffffffffffffffffff1602179055507f5c56bcd5a7e3f34a239651ac01fe373b8b0b837d818abb9b02df4f1bc9c49c78338360405161087192919061125b565b60405180910390a160019050919050565b6000600160008473ffffffffffffffffffffffffffffffffffffffff1673ffffffffffffffffffffffffffffffffffffffff16815260200190815260200160002060008373ffffffffffffffffffffffffffffffffffffffff1673ffffffffffffffffffffffffffffffffffffffff16815260200190815260200160002054905092915050565b600033905090565b600073ffffffffffffffffffffffffffffffffffffffff168373ffffffffffffffffffffffffffffffffffffffff161415610981576040517f08c379a0000000000000000000000000000000000000000000000000000000008152600401610978906113a1565b60405180910390fd5b600073ffffffffffffffffffffffffffffffffffffffff168273ffffffffffffffffffffffffffffffffffffffff1614156109f1576040517f08c379a00000000000000000000000000000000000000000000000000000000081526004016109e8906112e1565b60405180910390fd5b80600160008573ffffffffffffffffffffffffffffffffffffffff1673ffffffffffffffffffffffffffffffffffffffff16815260200190815260200160002060008473ffffffffffffffffffffffffffffffffffffffff1673ffffffffffffffffffffffffffffffffffffffff168152602001908152602001600020819055508173ffffffffffffffffffffffffffffffffffffffff168373ffffffffffffffffffffffffffffffffffffffff167f8c5be1e5ebec7d5bd14f71427d1e84f3dd0314c0f7b2291e5b200ac8c7c3b92583604051610acf9190611401565b60405180910390a3505050565b6000610ae88484610882565b90507fffffffffffffffffffffffffffffffffffffffffffffffffffffffffffffffff8114610b625781811015610b54576040517f08c379a0000000000000000000000000000000000000000000000000000000008152600401610b4b90611301565b60405180910390fd5b610b618484848403610911565b5b50505050565b600073ffffffffffffffffffffffffffffffffffffffff168373ffffffffffffffffffffffffffffffffffffffff161415610bd8576040517f08c379a0000000000000000000000000000000000000000000000000000000008152600401610bcf90611381565b60405180910390fd5b600073ffffffffffffffffffffffffffffffffffffffff168273ffffffffffffffffffffffffffffffffffffffff161415610c48576040517f08c379a0000000000000000000000000000000000000000000000000000000008152600401610c3f906112c1565b60405180910390fd5b610c53838383610f49565b60008060008573ffffffffffffffffffffffffffffffffffffffff1673ffffffffffffffffffffffffffffffffffffffff16815260200190815260200160002054905081811015610cd9576040517f08c379a0000000000000000000000000000000000000000000000000000000008152600401610cd090611321565b60405180910390fd5b8181036000808673ffffffffffffffffffffffffffffffffffffffff1673ffffffffffffffffffffffffffffffffffffffff16815260200190815260200160002081905550816000808573ffffffffffffffffffffffffffffffffffffffff1673ffffffffffffffffffffffffffffffffffffffff1681526020019081526020016000206000828254610d6c9190611453565b925050819055508273ffffffffffffffffffffffffffffffffffffffff168473ffffffffffffffffffffffffffffffffffffffff167fddf252ad1be2c89b69c2b068fc378daa952ba7f163c4a11628f55a4df523b3ef84604051610dd09190611401565b60405180910390a3610de3848484610f4e565b50505050565b600073ffffffffffffffffffffffffffffffffffffffff168273ffffffffffffffffffffffffffffffffffffffff161415610e59576040517f08c379a0000000000000000000000000000000000000000000000000000000008152600401610e50906113e1565b60405180910390fd5b610e6560008383610f49565b8060026000828254610e779190611453565b92505081905550806000808473ffffffffffffffffffffffffffffffffffffffff1673ffffffffffffffffffffffffffffffffffffffff1681526020019081526020016000206000828254610ecc9190611453565b925050819055508173ffffffffffffffffffffffffffffffffffffffff16600073ffffffffffffffffffffffffffffffffffffffff167fddf252ad1be2c89b69c2b068fc378daa952ba7f163c4a11628f55a4df523b3ef83604051610f319190611401565b60405180910390a3610f4560008383610f4e565b5050565b505050565b505050565b600081359050610f628161189c565b92915050565b600081359050610f77816118b3565b92915050565b600060208284031215610f8f57600080fd5b6000610f9d84828501610f53565b91505092915050565b60008060408385031215610fb957600080fd5b6000610fc785828601610f53565b9250506020610fd885828601610f53565b9150509250929050565b600080600060608486031215610ff757600080fd5b600061100586828701610f53565b935050602061101686828701610f53565b925050604061102786828701610f68565b9150509250925092565b6000806040838503121561104457600080fd5b600061105285828601610f53565b925050602061106385828601610f68565b9150509250929050565b611076816114a9565b82525050565b611085816114bb565b82525050565b600061109682611437565b6110a08185611442565b93506110b08185602086016114fe565b6110b9816115c1565b840191505092915050565b60006110d1602383611442565b91506110dc826115d2565b604082019050919050565b60006110f4602283611442565b91506110ff82611621565b604082019050919050565b6000611117601d83611442565b915061112282611670565b602082019050919050565b600061113a602683611442565b915061114582611699565b604082019050919050565b600061115d602283611442565b9150611168826116e8565b604082019050919050565b6000611180602f83611442565b915061118b82611737565b604082019050919050565b60006111a3602583611442565b91506111ae82611786565b604082019050919050565b60006111c6602483611442565b91506111d1826117d5565b604082019050919050565b60006111e9602583611442565b91506111f482611824565b604082019050919050565b600061120c601f83611442565b915061121782611873565b602082019050919050565b61122b816114e7565b82525050565b61123a816114f1565b82525050565b6000602082019050611255600083018461106d565b92915050565b6000604082019050611270600083018561106d565b61127d602083018461106d565b9392505050565b6000602082019050611299600083018461107c565b92915050565b600060208201905081810360008301526112b9818461108b565b905092915050565b600060208201905081810360008301526112da816110c4565b9050919050565b600060208201905081810360008301526112fa816110e7565b9050919050565b6000602082019050818103600083015261131a8161110a565b9050919050565b6000602082019050818103600083015261133a8161112d565b9050919050565b6000602082019050818103600083015261135a81611150565b9050919050565b6000602082019050818103600083015261137a81611173565b9050919050565b6000602082019050818103600083015261139a81611196565b9050919050565b600060208201905081810360008301526113ba816111b9565b9050919050565b600060208201905081810360008301526113da816111dc565b9050919050565b600060208201905081810360008301526113fa816111ff565b9050919050565b60006020820190506114166000830184611222565b92915050565b60006020820190506114316000830184611231565b92915050565b600081519050919050565b600082825260208201905092915050565b600061145e826114e7565b9150611469836114e7565b9250827fffffffffffffffffffffffffffffffffffffffffffffffffffffffffffffffff0382111561149e5761149d611563565b5b828201905092915050565b60006114b4826114c7565b9050919050565b60008115159050919050565b600073ffffffffffffffffffffffffffffffffffffffff82169050919050565b6000819050919050565b600060ff82169050919050565b60005b8381101561151c578082015181840152602081019050611501565b8381111561152b576000848401525b50505050565b6000600282049050600182168061154957607f821691505b6020821081141561155d5761155c611592565b5b50919050565b7f4e487b7100000000000000000000000000000000000000000000000000000000600052601160045260246000fd5b7f4e487b7100000000000000000000000000000000000000000000000000000000600052602260045260246000fd5b6000601f19601f8301169050919050565b7f45524332303a207472616e7366657220746f20746865207a65726f206164647260008201527f6573730000000000000000000000000000000000000000000000000000000000602082015250565b7f45524332303a20617070726f766520746f20746865207a65726f20616464726560008201527f7373000000000000000000000000000000000000000000000000000000000000602082015250565b7f45524332303a20696e73756666696369656e7420616c6c6f77616e6365000000600082015250565b7f45524332303a207472616e7366657220616d6f756e742065786365656473206260008201527f616c616e63650000000000000000000000000000000000000000000000000000602082015250565b7f4572726f723a20596f7520646f206e6f742068617665206d696e74657220726f60008201527f6c65000000000000000000000000000000000000000000000000000000000000602082015250565b7f4572726f723a204f6e6c792063757272656e74206d696e7465722063616e207060008201527f617373206d696e74657220726f6c650000000000000000000000000000000000602082015250565b7f45524332303a207472616e736665722066726f6d20746865207a65726f20616460008201527f6472657373000000000000000000000000000000000000000000000000000000602082015250565b7f45524332303a20617070726f76652066726f6d20746865207a65726f2061646460008201527f7265737300000000000000000000000000000000000000000000000000000000602082015250565b7f45524332303a2064656372656173656420616c6c6f77616e63652062656c6f7760008201527f207a65726f000000000000000000000000000000000000000000000000000000602082015250565b7f45524332303a206d696e7420746f20746865207a65726f206164647265737300600082015250565b6118a5816114a9565b81146118b057600080fd5b50565b6118bc816114e7565b81146118c757600080fd5b5056fea2646970667358221220aeac7d0e273bf6e1c47979c0d61691392154a808b7ad5594e44f268d64db7f1a64736f6c63430008010033",
  "immutableReferences": {},
  "source": "pragma solidity >=0.4.22 <0.8.13;\n\nimport \"openzeppelin-solidity/contracts/token/ERC20/ERC20.sol\";\n\ncontract Token is ERC20 {\n\n  address public minter;\n\n  event MinterChange(address _old, address _new); \n\n  constructor() public payable ERC20(\"Wordlecoin\", \"WDL\") {\n\n    _mint(msg.sender, 1000000000000000000000000000);\n    minter = msg.sender;\n\n  }\n\n  function passMinterRole (address _game) public returns (bool success) {\n  require(msg.sender ==minter, \"Error: Only current minter can pass minter role\");\n\n  minter = _game;\n\n  emit MinterChange(msg.sender, _game);\n  return true;\n  }\n\n  function mint(address account, uint256 amount) public {\n\n    require(msg.sender==minter, \"Error: You do not have minter role\");\n\n\t\t_mint(account, amount);\n\t}\n}",
  "sourcePath": "D:/One/wordle_coin/contracts/Token.sol",
  "compiler": {
    "name": "solc",
    "version": "0.8.1+commit.df193b15.Emscripten.clang"
  },
  "schemaVersion": "3.2.3",
  "updatedAt": "2022-03-05T16:29:21.422Z",
  "devdoc": {
    "kind": "dev",
    "methods": {
      "allowance(address,address)": {
        "details": "See {IERC20-allowance}."
      },
      "approve(address,uint256)": {
        "details": "See {IERC20-approve}. NOTE: If `amount` is the maximum `uint256`, the allowance is not updated on `transferFrom`. This is semantically equivalent to an infinite approval. Requirements: - `spender` cannot be the zero address."
      },
      "balanceOf(address)": {
        "details": "See {IERC20-balanceOf}."
      },
      "decimals()": {
        "details": "Returns the number of decimals used to get its user representation. For example, if `decimals` equals `2`, a balance of `505` tokens should be displayed to a user as `5.05` (`505 / 10 ** 2`). Tokens usually opt for a value of 18, imitating the relationship between Ether and Wei. This is the value {ERC20} uses, unless this function is overridden; NOTE: This information is only used for _display_ purposes: it in no way affects any of the arithmetic of the contract, including {IERC20-balanceOf} and {IERC20-transfer}."
      },
      "decreaseAllowance(address,uint256)": {
        "details": "Atomically decreases the allowance granted to `spender` by the caller. This is an alternative to {approve} that can be used as a mitigation for problems described in {IERC20-approve}. Emits an {Approval} event indicating the updated allowance. Requirements: - `spender` cannot be the zero address. - `spender` must have allowance for the caller of at least `subtractedValue`."
      },
      "increaseAllowance(address,uint256)": {
        "details": "Atomically increases the allowance granted to `spender` by the caller. This is an alternative to {approve} that can be used as a mitigation for problems described in {IERC20-approve}. Emits an {Approval} event indicating the updated allowance. Requirements: - `spender` cannot be the zero address."
      },
      "name()": {
        "details": "Returns the name of the token."
      },
      "symbol()": {
        "details": "Returns the symbol of the token, usually a shorter version of the name."
      },
      "totalSupply()": {
        "details": "See {IERC20-totalSupply}."
      },
      "transfer(address,uint256)": {
        "details": "See {IERC20-transfer}. Requirements: - `to` cannot be the zero address. - the caller must have a balance of at least `amount`."
      },
      "transferFrom(address,address,uint256)": {
        "details": "See {IERC20-transferFrom}. Emits an {Approval} event indicating the updated allowance. This is not required by the EIP. See the note at the beginning of {ERC20}. NOTE: Does not update the allowance if the current allowance is the maximum `uint256`. Requirements: - `from` and `to` cannot be the zero address. - `from` must have a balance of at least `amount`. - the caller must have allowance for ``from``'s tokens of at least `amount`."
      }
    },
    "version": 1
  },
  "userdoc": {
    "kind": "user",
    "methods": {},
    "version": 1
  }
}